:100000000C9434000C9451000C9451000C94510049
:100010000C9451000C9451000C9451000C9451001C
:100020000C9451000C9451000C9451000C9453000A
:100030000C9451000C9451000C9451000C945100FC
:100040000C9451000C9451000C9451000C945100EC
:100050000C9451000C9451000C9451000C945100DC
:100060000C9451000C94510011241FBECFEFD8E026
:10007000DEBFCDBF11E0A0E0B1E0E4E0F2E002C0FD
:1000800005900D92A031B107D9F721E0A0E1B1E0D0
:1000900001C01D92A931B207E1F70E94F3000C9450
:1000A00000010C9400001F920F920FB60F921124C2
:1000B0002F933F938F939F938091140190911501FB
:1000C000892B81F0809112019091130101969093F8
:1000D00013018093120180911201909113010197F5
:1000E00051F459989F918F913F912F910F900FBE8E
:1000F0000F901F90189580911201909113010A970B
:10010000D4F4809116012091120130911301082E30
:10011000000C990B2250310902C0959587952A95BC
:10012000E2F780FF02C0599A01C0599810928500E9
:1001300010928400D7CF80911201909113010A97F9
:1001400091F3109215011092140110921301109264
:1001500012012D98EBCF8091140190911501892BFC
:1001600071F580911001909111010C976CF0109233
:100170001101109210012FEF83ED90E32150804088
:100180009040E1F700C00000E0910001F091010112
:1001900080911001909111019C012F5F3F4F30938E
:1001A000110120931001E80FF91F8081809316013F
:1001B00081E090E090931501809314012D9A0895A9
:1001C000109280008AE08093810082E080936F002B
:1001D0008FEC90E090938900809388007894089544
:1001E000599A0C94E000519A259A8FEC90E09093E4
:1001F0001801809317010E94F0000E94AB00FDCF10
:04020000F894FFCFA0
:10020400020168656C6C6F20776F726C640A000081
:00000001FF
